{
  "_format": "hh-sol-artifact-1",
  "contractName": "PropertyVault",
  "sourceName": "contracts/PropertyVault.sol",
  "abi": [
    {
      "inputs": [
        {
          "internalType": "address",
          "name": "usdcAddress",
          "type": "address"
        },
        {
          "internalType": "address",
          "name": "defaultAdmin",
          "type": "address"
        }
      ],
      "stateMutability": "nonpayable",
      "type": "constructor"
    },
    {
      "inputs": [],
      "name": "AccessControlBadConfirmation",
      "type": "error"
    },
    {
      "inputs": [
        {
          "internalType": "address",
          "name": "account",
          "type": "address"
        },
        {
          "internalType": "bytes32",
          "name": "neededRole",
          "type": "bytes32"
        }
      ],
      "name": "AccessControlUnauthorizedAccount",
      "type": "error"
    },
    {
      "inputs": [],
      "name": "EnforcedPause",
      "type": "error"
    },
    {
      "inputs": [],
      "name": "ExpectedPause",
      "type": "error"
    },
    {
      "inputs": [
        {
          "internalType": "uint256",
          "name": "available",
          "type": "uint256"
        },
        {
          "internalType": "uint256",
          "name": "requested",
          "type": "uint256"
        }
      ],
      "name": "InsufficientBalance",
      "type": "error"
    },
    {
      "inputs": [
        {
          "internalType": "uint256",
          "name": "locked",
          "type": "uint256"
        },
        {
          "internalType": "uint256",
          "name": "requested",
          "type": "uint256"
        }
      ],
      "name": "InsufficientLockedBalance",
      "type": "error"
    },
    {
      "inputs": [
        {
          "internalType": "uint256",
          "name": "fee",
          "type": "uint256"
        }
      ],
      "name": "InvalidFee",
      "type": "error"
    },
    {
      "inputs": [],
      "name": "PropertyTokenNotSet",
      "type": "error"
    },
    {
      "inputs": [],
      "name": "ReentrancyGuardReentrantCall",
      "type": "error"
    },
    {
      "inputs": [
        {
          "internalType": "address",
          "name": "token",
          "type": "address"
        }
      ],
      "name": "SafeERC20FailedOperation",
      "type": "error"
    },
    {
      "inputs": [],
      "name": "TreasuryNotSet",
      "type": "error"
    },
    {
      "inputs": [],
      "name": "ZeroAddress",
      "type": "error"
    },
    {
      "inputs": [],
      "name": "ZeroAmount",
      "type": "error"
    },
    {
      "anonymous": false,
      "inputs": [
        {
          "indexed": true,
          "internalType": "address",
          "name": "user",
          "type": "address"
        },
        {
          "indexed": false,
          "internalType": "uint256",
          "name": "amount",
          "type": "uint256"
        }
      ],
      "name": "BalanceLocked",
      "type": "event"
    },
    {
      "anonymous": false,
      "inputs": [
        {
          "indexed": true,
          "internalType": "address",
          "name": "user",
          "type": "address"
        },
        {
          "indexed": false,
          "internalType": "uint256",
          "name": "amount",
          "type": "uint256"
        }
      ],
      "name": "BalanceUnlocked",
      "type": "event"
    },
    {
      "anonymous": false,
      "inputs": [
        {
          "indexed": true,
          "internalType": "address",
          "name": "user",
          "type": "address"
        },
        {
          "indexed": false,
          "internalType": "uint256",
          "name": "amount",
          "type": "uint256"
        },
        {
          "indexed": false,
          "internalType": "uint256",
          "name": "newBalance",
          "type": "uint256"
        }
      ],
      "name": "Deposited",
      "type": "event"
    },
    {
      "anonymous": false,
      "inputs": [
        {
          "indexed": true,
          "internalType": "address",
          "name": "oldRecipient",
          "type": "address"
        },
        {
          "indexed": true,
          "internalType": "address",
          "name": "newRecipient",
          "type": "address"
        }
      ],
      "name": "FeeRecipientUpdated",
      "type": "event"
    },
    {
      "anonymous": false,
      "inputs": [
        {
          "indexed": false,
          "internalType": "address",
          "name": "account",
          "type": "address"
        }
      ],
      "name": "Paused",
      "type": "event"
    },
    {
      "anonymous": false,
      "inputs": [
        {
          "indexed": false,
          "internalType": "uint256",
          "name": "oldFee",
          "type": "uint256"
        },
        {
          "indexed": false,
          "internalType": "uint256",
          "name": "newFee",
          "type": "uint256"
        }
      ],
      "name": "PlatformFeesUpdated",
      "type": "event"
    },
    {
      "anonymous": false,
      "inputs": [
        {
          "indexed": true,
          "internalType": "address",
          "name": "buyer",
          "type": "address"
        },
        {
          "indexed": true,
          "internalType": "uint256",
          "name": "propertyId",
          "type": "uint256"
        },
        {
          "indexed": false,
          "internalType": "uint256",
          "name": "tokenAmount",
          "type": "uint256"
        },
        {
          "indexed": false,
          "internalType": "uint256",
          "name": "usdcSpent",
          "type": "uint256"
        },
        {
          "indexed": false,
          "internalType": "uint256",
          "name": "platformFee",
          "type": "uint256"
        }
      ],
      "name": "PropertyPurchased",
      "type": "event"
    },
    {
      "anonymous": false,
      "inputs": [
        {
          "indexed": true,
          "internalType": "address",
          "name": "oldToken",
          "type": "address"
        },
        {
          "indexed": true,
          "internalType": "address",
          "name": "newToken",
          "type": "address"
        }
      ],
      "name": "PropertyTokenUpdated",
      "type": "event"
    },
    {
      "anonymous": false,
      "inputs": [
        {
          "indexed": true,
          "internalType": "bytes32",
          "name": "role",
          "type": "bytes32"
        },
        {
          "indexed": true,
          "internalType": "bytes32",
          "name": "previousAdminRole",
          "type": "bytes32"
        },
        {
          "indexed": true,
          "internalType": "bytes32",
          "name": "newAdminRole",
          "type": "bytes32"
        }
      ],
      "name": "RoleAdminChanged",
      "type": "event"
    },
    {
      "anonymous": false,
      "inputs": [
        {
          "indexed": true,
          "internalType": "bytes32",
          "name": "role",
          "type": "bytes32"
        },
        {
          "indexed": true,
          "internalType": "address",
          "name": "account",
          "type": "address"
        },
        {
          "indexed": true,
          "internalType": "address",
          "name": "sender",
          "type": "address"
        }
      ],
      "name": "RoleGranted",
      "type": "event"
    },
    {
      "anonymous": false,
      "inputs": [
        {
          "indexed": true,
          "internalType": "bytes32",
          "name": "role",
          "type": "bytes32"
        },
        {
          "indexed": true,
          "internalType": "address",
          "name": "account",
          "type": "address"
        },
        {
          "indexed": true,
          "internalType": "address",
          "name": "sender",
          "type": "address"
        }
      ],
      "name": "RoleRevoked",
      "type": "event"
    },
    {
      "anonymous": false,
      "inputs": [
        {
          "indexed": true,
          "internalType": "address",
          "name": "oldTreasury",
          "type": "address"
        },
        {
          "indexed": true,
          "internalType": "address",
          "name": "newTreasury",
          "type": "address"
        }
      ],
      "name": "TreasuryUpdated",
      "type": "event"
    },
    {
      "anonymous": false,
      "inputs": [
        {
          "indexed": false,
          "internalType": "address",
          "name": "account",
          "type": "address"
        }
      ],
      "name": "Unpaused",
      "type": "event"
    },
    {
      "anonymous": false,
      "inputs": [
        {
          "indexed": true,
          "internalType": "address",
          "name": "user",
          "type": "address"
        },
        {
          "indexed": false,
          "internalType": "uint256",
          "name": "amount",
          "type": "uint256"
        },
        {
          "indexed": false,
          "internalType": "uint256",
          "name": "newBalance",
          "type": "uint256"
        }
      ],
      "name": "Withdrawn",
      "type": "event"
    },
    {
      "inputs": [],
      "name": "ADMIN_ROLE",
      "outputs": [
        {
          "internalType": "bytes32",
          "name": "",
          "type": "bytes32"
        }
      ],
      "stateMutability": "view",
      "type": "function"
    },
    {
      "inputs": [],
      "name": "DEFAULT_ADMIN_ROLE",
      "outputs": [
        {
          "internalType": "bytes32",
          "name": "",
          "type": "bytes32"
        }
      ],
      "stateMutability": "view",
      "type": "function"
    },
    {
      "inputs": [],
      "name": "OPERATOR_ROLE",
      "outputs": [
        {
          "internalType": "bytes32",
          "name": "",
          "type": "bytes32"
        }
      ],
      "stateMutability": "view",
      "type": "function"
    },
    {
      "inputs": [
        {
          "internalType": "address",
          "name": "user",
          "type": "address"
        }
      ],
      "name": "availableBalanceOf",
      "outputs": [
        {
          "internalType": "uint256",
          "name": "",
          "type": "uint256"
        }
      ],
      "stateMutability": "view",
      "type": "function"
    },
    {
      "inputs": [
        {
          "internalType": "address",
          "name": "user",
          "type": "address"
        }
      ],
      "name": "balanceOf",
      "outputs": [
        {
          "internalType": "uint256",
          "name": "",
          "type": "uint256"
        }
      ],
      "stateMutability": "view",
      "type": "function"
    },
    {
      "inputs": [
        {
          "internalType": "uint256",
          "name": "amount",
          "type": "uint256"
        }
      ],
      "name": "deposit",
      "outputs": [],
      "stateMutability": "nonpayable",
      "type": "function"
    },
    {
      "inputs": [
        {
          "internalType": "address",
          "name": "user",
          "type": "address"
        },
        {
          "internalType": "uint256",
          "name": "amount",
          "type": "uint256"
        }
      ],
      "name": "depositFor",
      "outputs": [],
      "stateMutability": "nonpayable",
      "type": "function"
    },
    {
      "inputs": [
        {
          "internalType": "address",
          "name": "token",
          "type": "address"
        },
        {
          "internalType": "address",
          "name": "to",
          "type": "address"
        },
        {
          "internalType": "uint256",
          "name": "amount",
          "type": "uint256"
        }
      ],
      "name": "emergencyWithdraw",
      "outputs": [],
      "stateMutability": "nonpayable",
      "type": "function"
    },
    {
      "inputs": [],
      "name": "feeRecipient",
      "outputs": [
        {
          "internalType": "address",
          "name": "",
          "type": "address"
        }
      ],
      "stateMutability": "view",
      "type": "function"
    },
    {
      "inputs": [
        {
          "internalType": "bytes32",
          "name": "role",
          "type": "bytes32"
        }
      ],
      "name": "getRoleAdmin",
      "outputs": [
        {
          "internalType": "bytes32",
          "name": "",
          "type": "bytes32"
        }
      ],
      "stateMutability": "view",
      "type": "function"
    },
    {
      "inputs": [
        {
          "internalType": "bytes32",
          "name": "role",
          "type": "bytes32"
        },
        {
          "internalType": "address",
          "name": "account",
          "type": "address"
        }
      ],
      "name": "grantRole",
      "outputs": [],
      "stateMutability": "nonpayable",
      "type": "function"
    },
    {
      "inputs": [
        {
          "internalType": "bytes32",
          "name": "role",
          "type": "bytes32"
        },
        {
          "internalType": "address",
          "name": "account",
          "type": "address"
        }
      ],
      "name": "hasRole",
      "outputs": [
        {
          "internalType": "bool",
          "name": "",
          "type": "bool"
        }
      ],
      "stateMutability": "view",
      "type": "function"
    },
    {
      "inputs": [
        {
          "internalType": "address",
          "name": "user",
          "type": "address"
        },
        {
          "internalType": "uint256",
          "name": "amount",
          "type": "uint256"
        }
      ],
      "name": "lockBalance",
      "outputs": [],
      "stateMutability": "nonpayable",
      "type": "function"
    },
    {
      "inputs": [
        {
          "internalType": "address",
          "name": "user",
          "type": "address"
        }
      ],
      "name": "lockedBalanceOf",
      "outputs": [
        {
          "internalType": "uint256",
          "name": "",
          "type": "uint256"
        }
      ],
      "stateMutability": "view",
      "type": "function"
    },
    {
      "inputs": [],
      "name": "pause",
      "outputs": [],
      "stateMutability": "nonpayable",
      "type": "function"
    },
    {
      "inputs": [],
      "name": "paused",
      "outputs": [
        {
          "internalType": "bool",
          "name": "",
          "type": "bool"
        }
      ],
      "stateMutability": "view",
      "type": "function"
    },
    {
      "inputs": [],
      "name": "platformFeesBps",
      "outputs": [
        {
          "internalType": "uint256",
          "name": "",
          "type": "uint256"
        }
      ],
      "stateMutability": "view",
      "type": "function"
    },
    {
      "inputs": [],
      "name": "propertyToken",
      "outputs": [
        {
          "internalType": "contract IPropertyToken",
          "name": "",
          "type": "address"
        }
      ],
      "stateMutability": "view",
      "type": "function"
    },
    {
      "inputs": [
        {
          "internalType": "address",
          "name": "buyer",
          "type": "address"
        },
        {
          "internalType": "uint256",
          "name": "propertyId",
          "type": "uint256"
        },
        {
          "internalType": "uint256",
          "name": "tokenAmount",
          "type": "uint256"
        },
        {
          "internalType": "uint256",
          "name": "usdcCost",
          "type": "uint256"
        }
      ],
      "name": "purchaseProperty",
      "outputs": [],
      "stateMutability": "nonpayable",
      "type": "function"
    },
    {
      "inputs": [
        {
          "internalType": "bytes32",
          "name": "role",
          "type": "bytes32"
        },
        {
          "internalType": "address",
          "name": "callerConfirmation",
          "type": "address"
        }
      ],
      "name": "renounceRole",
      "outputs": [],
      "stateMutability": "nonpayable",
      "type": "function"
    },
    {
      "inputs": [
        {
          "internalType": "bytes32",
          "name": "role",
          "type": "bytes32"
        },
        {
          "internalType": "address",
          "name": "account",
          "type": "address"
        }
      ],
      "name": "revokeRole",
      "outputs": [],
      "stateMutability": "nonpayable",
      "type": "function"
    },
    {
      "inputs": [
        {
          "internalType": "address",
          "name": "recipient",
          "type": "address"
        }
      ],
      "name": "setFeeRecipient",
      "outputs": [],
      "stateMutability": "nonpayable",
      "type": "function"
    },
    {
      "inputs": [
        {
          "internalType": "uint256",
          "name": "feeBps",
          "type": "uint256"
        }
      ],
      "name": "setPlatformFee",
      "outputs": [],
      "stateMutability": "nonpayable",
      "type": "function"
    },
    {
      "inputs": [
        {
          "internalType": "address",
          "name": "tokenAddress",
          "type": "address"
        }
      ],
      "name": "setPropertyToken",
      "outputs": [],
      "stateMutability": "nonpayable",
      "type": "function"
    },
    {
      "inputs": [
        {
          "internalType": "address",
          "name": "newTreasury",
          "type": "address"
        }
      ],
      "name": "setTreasury",
      "outputs": [],
      "stateMutability": "nonpayable",
      "type": "function"
    },
    {
      "inputs": [
        {
          "internalType": "bytes4",
          "name": "interfaceId",
          "type": "bytes4"
        }
      ],
      "name": "supportsInterface",
      "outputs": [
        {
          "internalType": "bool",
          "name": "",
          "type": "bool"
        }
      ],
      "stateMutability": "view",
      "type": "function"
    },
    {
      "inputs": [],
      "name": "totalDeposits",
      "outputs": [
        {
          "internalType": "uint256",
          "name": "",
          "type": "uint256"
        }
      ],
      "stateMutability": "view",
      "type": "function"
    },
    {
      "inputs": [],
      "name": "treasury",
      "outputs": [
        {
          "internalType": "address",
          "name": "",
          "type": "address"
        }
      ],
      "stateMutability": "view",
      "type": "function"
    },
    {
      "inputs": [
        {
          "internalType": "address",
          "name": "user",
          "type": "address"
        },
        {
          "internalType": "uint256",
          "name": "amount",
          "type": "uint256"
        }
      ],
      "name": "unlockBalance",
      "outputs": [],
      "stateMutability": "nonpayable",
      "type": "function"
    },
    {
      "inputs": [],
      "name": "unpause",
      "outputs": [],
      "stateMutability": "nonpayable",
      "type": "function"
    },
    {
      "inputs": [],
      "name": "usdc",
      "outputs": [
        {
          "internalType": "contract IERC20",
          "name": "",
          "type": "address"
        }
      ],
      "stateMutability": "view",
      "type": "function"
    },
    {
      "inputs": [
        {
          "internalType": "uint256",
          "name": "amount",
          "type": "uint256"
        }
      ],
      "name": "withdraw",
      "outputs": [],
      "stateMutability": "nonpayable",
      "type": "function"
    }
  ],
  "bytecode": "0x60a06040523480156200001157600080fd5b50604051620019a5380380620019a58339810160408190526200003491620001f9565b600180556001600160a01b038216620000605760405163d92e233d60e01b815260040160405180910390fd5b6001600160a01b038116620000885760405163d92e233d60e01b815260040160405180910390fd5b6001600160a01b03808316608052600780549183166001600160a01b03199283168117909155600880549092161790556064600655620000ca6000826200012d565b50620000f77fa49807205ce4d355092ef5a8a18f56e8913cf4a201fbe287825b095693c21775826200012d565b50620001247f97667070c54ef182b0f5858b034beac1b6f3089aa2d3188bb1e8929f4fa9b929826200012d565b50505062000231565b6000828152602081815260408083206001600160a01b038516845290915281205460ff16620001d2576000838152602081815260408083206001600160a01b03861684529091529020805460ff19166001179055620001893390565b6001600160a01b0316826001600160a01b0316847f2f8788117e7eff1d82e926ec794901d17c78024a50270940304540a733656f0d60405160405180910390a4506001620001d6565b5060005b92915050565b80516001600160a01b0381168114620001f457600080fd5b919050565b600080604083850312156200020d57600080fd5b6200021883620001dc565b91506200022860208401620001dc565b90509250929050565b60805161173562000270600039600081816102e3015281816107770152818161089b01528181610c0801528181610ea60152610ee001526117356000f3fe608060405234801561001057600080fd5b50600436106101f05760003560e01c806361d027b31161010f578063a217fddf116100a2578063e63ea40811610071578063e63ea40814610460578063e74b981b14610473578063f0f4426014610486578063f5b541a61461049957600080fd5b8063a217fddf1461041f578063b6b55f2514610427578063cb73beb31461043a578063d547741f1461044d57600080fd5b80637837e170116100de5780637837e170146103e85780637d882097146103fb5780638456cb591461040457806391d148541461040c57600080fd5b806361d027b314610384578063630655571461039757806370a08231146103aa57806375b238fc146103d357600080fd5b8063315bdd4a1161018757806343ae26951161015657806343ae269514610325578063469048401461033d57806359355736146103505780635c975abb1461037957600080fd5b8063315bdd4a146102c257806336568abe146102cb5780633e413bee146102de5780633f4ba83a1461031d57600080fd5b806325d998bb116101c357806325d998bb146102765780632e1a7d4d146102895780632f2ff15d1461029c5780632f4f21e2146102af57600080fd5b806301ffc9a7146101f55780630426dcef1461021d57806312e8e2c314610232578063248a9ca314610245575b600080fd5b6102086102033660046114fe565b6104ae565b60405190151581526020015b60405180910390f35b61023061022b36600461154b565b6104bf565b005b610230610240366004611575565b6105f7565b610268610253366004611575565b60009081526020819052604090206001015490565b604051908152602001610214565b61026861028436600461158e565b61067b565b610230610297366004611575565b6106a9565b6102306102aa3660046115a9565b6107f3565b6102306102bd36600461154b565b61081e565b61026860065481565b6102306102d93660046115a9565b610968565b6103057f000000000000000000000000000000000000000000000000000000000000000081565b6040516001600160a01b039091168152602001610214565b61023061099b565b6002546103059061010090046001600160a01b031681565b600754610305906001600160a01b031681565b61026861035e36600461158e565b6001600160a01b031660009081526004602052604090205490565b60025460ff16610208565b600854610305906001600160a01b031681565b6102306103a536600461158e565b6109bb565b6102686103b836600461158e565b6001600160a01b031660009081526003602052604090205490565b6102686000805160206116e083398151915281565b6102306103f636600461154b565b610a55565b61026860055481565b610230610b81565b61020861041a3660046115a9565b610ba1565b610268600081565b610230610435366004611575565b610bca565b6102306104483660046115d5565b610cbe565b61023061045b3660046115a9565b610feb565b61023061046e36600461160e565b611010565b61023061048136600461158e565b611056565b61023061049436600461158e565b6110e8565b6102686000805160206116c083398151915281565b60006104b98261117a565b92915050565b6000805160206116c08339815191526104d7816111af565b6001600160a01b0383166104fe5760405163d92e233d60e01b815260040160405180910390fd5b8160000361051f57604051631f2a200560e01b815260040160405180910390fd5b6001600160a01b038316600090815260046020526040902054821115610587576001600160a01b038316600090815260046020819052604091829020549151634b9961fb60e01b815261057e9291859101918252602082015260400190565b60405180910390fd5b6001600160a01b038316600090815260046020526040812080548492906105af908490611660565b90915550506040518281526001600160a01b038416907f43e8fb9d4f009c90c55a3fa108b177b794704d61af7af6f6512db7883f8ed8439060200160405180910390a2505050565b6000805160206116e083398151915261060f816111af565b6103e88211156106355760405163179c637760e11b81526004810183905260240161057e565b600680549083905560408051828152602081018590527fd8e832f816c1cbad9f319fc8017ca9d81476c84945de3610a3cf813538f73751910160405180910390a1505050565b6001600160a01b03811660009081526004602090815260408083205460039092528220546104b99190611660565b6106b16111b9565b6106b96111e3565b806000036106da57604051631f2a200560e01b815260040160405180910390fd5b3360009081526004602090815260408083205460039092528220546106ff9190611660565b90508181101561072c5760405163cf47918160e01b8152600481018290526024810183905260440161057e565b336000908152600360205260408120805484929061074b908490611660565b9250508190555081600560008282546107649190611660565b9091555061079e90506001600160a01b037f0000000000000000000000000000000000000000000000000000000000000000163384611209565b33600081815260036020908152604091829020548251868152918201527f92ccf450a286a957af52509bc1c9939d1a6a481783e142e41e2499f0bb66ebc6910160405180910390a2506107f060018055565b50565b60008281526020819052604090206001015461080e816111af565b6108188383611268565b50505050565b6000805160206116c0833981519152610836816111af565b61083e6111b9565b6108466111e3565b6001600160a01b03831661086d5760405163d92e233d60e01b815260040160405180910390fd5b8160000361088e57604051631f2a200560e01b815260040160405180910390fd5b6108c36001600160a01b037f0000000000000000000000000000000000000000000000000000000000000000163330856112fa565b6001600160a01b038316600090815260036020526040812080548492906108eb908490611673565b9250508190555081600560008282546109049190611673565b90915550506001600160a01b038316600081815260036020908152604091829020548251868152918201527f73a19dd210f1a7f902193214c0ee91dd35ee5b4d920cba8d519eca65a7b488ca910160405180910390a261096360018055565b505050565b6001600160a01b03811633146109915760405163334bd91960e11b815260040160405180910390fd5b6109638282611333565b6000805160206116e08339815191526109b3816111af565b6107f061139e565b6000805160206116e08339815191526109d3816111af565b6001600160a01b0382166109fa5760405163d92e233d60e01b815260040160405180910390fd5b600280546001600160a01b03848116610100818102610100600160a81b031985161790945560405193909204169182907f201cf7d91f1b1853bae70cd519883bf126a42113b2d7859b5ef1be5fc40b8eca90600090a3505050565b6000805160206116c0833981519152610a6d816111af565b6001600160a01b038316610a945760405163d92e233d60e01b815260040160405180910390fd5b81600003610ab557604051631f2a200560e01b815260040160405180910390fd5b6001600160a01b0383166000908152600460209081526040808320546003909252822054610ae39190611660565b905082811015610b105760405163cf47918160e01b8152600481018290526024810184905260440161057e565b6001600160a01b03841660009081526004602052604081208054859290610b38908490611673565b90915550506040518381526001600160a01b038516907fd9aa477835e0d1939105c95f6883421ecfbf69c27b4825f650ac8c3fa975f2809060200160405180910390a250505050565b6000805160206116e0833981519152610b99816111af565b6107f06113f0565b6000918252602082815260408084206001600160a01b0393909316845291905290205460ff1690565b610bd26111b9565b610bda6111e3565b80600003610bfb57604051631f2a200560e01b815260040160405180910390fd5b610c306001600160a01b037f0000000000000000000000000000000000000000000000000000000000000000163330846112fa565b3360009081526003602052604081208054839290610c4f908490611673565b925050819055508060056000828254610c689190611673565b909155505033600081815260036020908152604091829020548251858152918201527f73a19dd210f1a7f902193214c0ee91dd35ee5b4d920cba8d519eca65a7b488ca910160405180910390a26107f060018055565b6000805160206116c0833981519152610cd6816111af565b610cde6111b9565b610ce66111e3565b6001600160a01b038516610d0d5760405163d92e233d60e01b815260040160405180910390fd5b82600003610d2e57604051631f2a200560e01b815260040160405180910390fd5b81600003610d4f57604051631f2a200560e01b815260040160405180910390fd5b60025461010090046001600160a01b0316610d7d57604051637e08759f60e01b815260040160405180910390fd5b6008546001600160a01b0316610da65760405163b2c4cce960e01b815260040160405180910390fd5b6001600160a01b0385166000908152600460209081526040808320546003909252822054610dd49190611660565b905082811015610e015760405163cf47918160e01b8152600481018290526024810184905260440161057e565b600061271060065485610e149190611686565b610e1e919061169d565b90506000610e2c8286611660565b6001600160a01b038916600090815260036020526040812080549293508792909190610e59908490611660565b925050819055508460056000828254610e729190611660565b90915550508115801590610e9057506007546001600160a01b031615155b15610ecf57600754610ecf906001600160a01b037f00000000000000000000000000000000000000000000000000000000000000008116911684611209565b600854610f09906001600160a01b037f00000000000000000000000000000000000000000000000000000000000000008116911683611209565b60025460405163731133e960e01b81526001600160a01b038a81166004830152602482018a90526044820189905260806064830152600060848301526101009092049091169063731133e99060a401600060405180830381600087803b158015610f7257600080fd5b505af1158015610f86573d6000803e3d6000fd5b505060408051898152602081018990529081018590528992506001600160a01b038b1691507f1c205c20657fd8b1fffd49220fdd6f0382908aef1487c0e3f1d43fa0d56feb859060600160405180910390a3505050610fe460018055565b5050505050565b600082815260208190526040902060010154611006816111af565b6108188383611333565b600061101b816111af565b6001600160a01b0383166110425760405163d92e233d60e01b815260040160405180910390fd5b6108186001600160a01b0385168484611209565b6000805160206116e083398151915261106e816111af565b6001600160a01b0382166110955760405163d92e233d60e01b815260040160405180910390fd5b600780546001600160a01b038481166001600160a01b0319831681179093556040519116919082907faaebcf1bfa00580e41d966056b48521fa9f202645c86d4ddf28113e617c1b1d390600090a3505050565b6000805160206116e0833981519152611100816111af565b6001600160a01b0382166111275760405163d92e233d60e01b815260040160405180910390fd5b600880546001600160a01b038481166001600160a01b0319831681179093556040519116919082907f4ab5be82436d353e61ca18726e984e561f5c1cc7c6d38b29d2553c790434705a90600090a3505050565b60006001600160e01b03198216637965db0b60e01b14806104b957506301ffc9a760e01b6001600160e01b03198316146104b9565b6107f0813361142d565b6002600154036111dc57604051633ee5aeb560e01b815260040160405180910390fd5b6002600155565b60025460ff16156112075760405163d93c066560e01b815260040160405180910390fd5b565b6040516001600160a01b0383811660248301526044820183905261096391859182169063a9059cbb906064015b604051602081830303815290604052915060e01b6020820180516001600160e01b03838183161783525050505061146a565b60006112748383610ba1565b6112f2576000838152602081815260408083206001600160a01b03861684529091529020805460ff191660011790556112aa3390565b6001600160a01b0316826001600160a01b0316847f2f8788117e7eff1d82e926ec794901d17c78024a50270940304540a733656f0d60405160405180910390a45060016104b9565b5060006104b9565b6040516001600160a01b0384811660248301528381166044830152606482018390526108189186918216906323b872dd90608401611236565b600061133f8383610ba1565b156112f2576000838152602081815260408083206001600160a01b0386168085529252808320805460ff1916905551339286917ff6391f5c32d9c69d2a47ea670b442974b53935d1edc7fd64eb21e047a839171b9190a45060016104b9565b6113a66114db565b6002805460ff191690557f5db9ee0a495bf2e6ff9c91a7834c1ba4fdd244a5e8aa4e537bd38aeae4b073aa335b6040516001600160a01b03909116815260200160405180910390a1565b6113f86111e3565b6002805460ff191660011790557f62e78cea01bee320cd4e420270b5ea74000d11b0c9f74754ebdbfc544b05a2586113d33390565b6114378282610ba1565b6114665760405163e2517d3f60e01b81526001600160a01b03821660048201526024810183905260440161057e565b5050565b600080602060008451602086016000885af18061148d576040513d6000823e3d81fd5b50506000513d915081156114a55780600114156114b2565b6001600160a01b0384163b155b1561081857604051635274afe760e01b81526001600160a01b038516600482015260240161057e565b60025460ff1661120757604051638dfc202b60e01b815260040160405180910390fd5b60006020828403121561151057600080fd5b81356001600160e01b03198116811461152857600080fd5b9392505050565b80356001600160a01b038116811461154657600080fd5b919050565b6000806040838503121561155e57600080fd5b6115678361152f565b946020939093013593505050565b60006020828403121561158757600080fd5b5035919050565b6000602082840312156115a057600080fd5b6115288261152f565b600080604083850312156115bc57600080fd5b823591506115cc6020840161152f565b90509250929050565b600080600080608085870312156115eb57600080fd5b6115f48561152f565b966020860135965060408601359560600135945092505050565b60008060006060848603121561162357600080fd5b61162c8461152f565b925061163a6020850161152f565b9150604084013590509250925092565b634e487b7160e01b600052601160045260246000fd5b818103818111156104b9576104b961164a565b808201808211156104b9576104b961164a565b80820281158282048414176104b9576104b961164a565b6000826116ba57634e487b7160e01b600052601260045260246000fd5b50049056fe97667070c54ef182b0f5858b034beac1b6f3089aa2d3188bb1e8929f4fa9b929a49807205ce4d355092ef5a8a18f56e8913cf4a201fbe287825b095693c21775a26469706673582212202c121f4a75ea26b99a0f35a097800db5b3190ff26bf6447522dfcff586e4e16e64736f6c63430008140033",
  "linkReferences": {},
  "deployedLinkReferences": {}
}