{
  "_format": "hh-sol-artifact-1",
  "contractName": "PropertyToken",
  "sourceName": "contracts/PropertyToken.sol",
  "abi": [
    {
      "inputs": [
        {
          "internalType": "address",
          "name": "defaultAdmin",
          "type": "address"
        }
      ],
      "stateMutability": "nonpayable",
      "type": "constructor"
    },
    {
      "inputs": [],
      "name": "AccessControlBadConfirmation",
      "type": "error"
    },
    {
      "inputs": [
        {
          "internalType": "address",
          "name": "account",
          "type": "address"
        },
        {
          "internalType": "bytes32",
          "name": "neededRole",
          "type": "bytes32"
        }
      ],
      "name": "AccessControlUnauthorizedAccount",
      "type": "error"
    },
    {
      "inputs": [
        {
          "internalType": "address",
          "name": "account",
          "type": "address"
        }
      ],
      "name": "BlocklistedAddress",
      "type": "error"
    },
    {
      "inputs": [
        {
          "internalType": "address",
          "name": "sender",
          "type": "address"
        },
        {
          "internalType": "uint256",
          "name": "balance",
          "type": "uint256"
        },
        {
          "internalType": "uint256",
          "name": "needed",
          "type": "uint256"
        },
        {
          "internalType": "uint256",
          "name": "tokenId",
          "type": "uint256"
        }
      ],
      "name": "ERC1155InsufficientBalance",
      "type": "error"
    },
    {
      "inputs": [
        {
          "internalType": "address",
          "name": "approver",
          "type": "address"
        }
      ],
      "name": "ERC1155InvalidApprover",
      "type": "error"
    },
    {
      "inputs": [
        {
          "internalType": "uint256",
          "name": "idsLength",
          "type": "uint256"
        },
        {
          "internalType": "uint256",
          "name": "valuesLength",
          "type": "uint256"
        }
      ],
      "name": "ERC1155InvalidArrayLength",
      "type": "error"
    },
    {
      "inputs": [
        {
          "internalType": "address",
          "name": "operator",
          "type": "address"
        }
      ],
      "name": "ERC1155InvalidOperator",
      "type": "error"
    },
    {
      "inputs": [
        {
          "internalType": "address",
          "name": "receiver",
          "type": "address"
        }
      ],
      "name": "ERC1155InvalidReceiver",
      "type": "error"
    },
    {
      "inputs": [
        {
          "internalType": "address",
          "name": "sender",
          "type": "address"
        }
      ],
      "name": "ERC1155InvalidSender",
      "type": "error"
    },
    {
      "inputs": [
        {
          "internalType": "address",
          "name": "operator",
          "type": "address"
        },
        {
          "internalType": "address",
          "name": "owner",
          "type": "address"
        }
      ],
      "name": "ERC1155MissingApprovalForAll",
      "type": "error"
    },
    {
      "inputs": [],
      "name": "EnforcedPause",
      "type": "error"
    },
    {
      "inputs": [
        {
          "internalType": "uint256",
          "name": "tokenId",
          "type": "uint256"
        },
        {
          "internalType": "uint256",
          "name": "requested",
          "type": "uint256"
        },
        {
          "internalType": "uint256",
          "name": "available",
          "type": "uint256"
        }
      ],
      "name": "ExceedsMaxSupply",
      "type": "error"
    },
    {
      "inputs": [],
      "name": "ExpectedPause",
      "type": "error"
    },
    {
      "inputs": [],
      "name": "InvalidMaxSupply",
      "type": "error"
    },
    {
      "inputs": [
        {
          "internalType": "uint256",
          "name": "tokenId",
          "type": "uint256"
        }
      ],
      "name": "PropertyAlreadyExists",
      "type": "error"
    },
    {
      "inputs": [
        {
          "internalType": "uint256",
          "name": "tokenId",
          "type": "uint256"
        }
      ],
      "name": "PropertyDoesNotExist",
      "type": "error"
    },
    {
      "inputs": [],
      "name": "ReentrancyGuardReentrantCall",
      "type": "error"
    },
    {
      "inputs": [],
      "name": "ZeroAddress",
      "type": "error"
    },
    {
      "inputs": [],
      "name": "ZeroAmount",
      "type": "error"
    },
    {
      "anonymous": false,
      "inputs": [
        {
          "indexed": true,
          "internalType": "address",
          "name": "account",
          "type": "address"
        },
        {
          "indexed": false,
          "internalType": "bool",
          "name": "blocked",
          "type": "bool"
        }
      ],
      "name": "AddressBlocklistUpdated",
      "type": "event"
    },
    {
      "anonymous": false,
      "inputs": [
        {
          "indexed": true,
          "internalType": "address",
          "name": "account",
          "type": "address"
        },
        {
          "indexed": true,
          "internalType": "address",
          "name": "operator",
          "type": "address"
        },
        {
          "indexed": false,
          "internalType": "bool",
          "name": "approved",
          "type": "bool"
        }
      ],
      "name": "ApprovalForAll",
      "type": "event"
    },
    {
      "anonymous": false,
      "inputs": [
        {
          "indexed": false,
          "internalType": "bool",
          "name": "enabled",
          "type": "bool"
        }
      ],
      "name": "ComplianceToggled",
      "type": "event"
    },
    {
      "anonymous": false,
      "inputs": [
        {
          "indexed": true,
          "internalType": "uint256",
          "name": "tokenId",
          "type": "uint256"
        },
        {
          "indexed": false,
          "internalType": "uint256",
          "name": "newMaxSupply",
          "type": "uint256"
        }
      ],
      "name": "MaxSupplyUpdated",
      "type": "event"
    },
    {
      "anonymous": false,
      "inputs": [
        {
          "indexed": false,
          "internalType": "address",
          "name": "account",
          "type": "address"
        }
      ],
      "name": "Paused",
      "type": "event"
    },
    {
      "anonymous": false,
      "inputs": [
        {
          "indexed": true,
          "internalType": "uint256",
          "name": "tokenId",
          "type": "uint256"
        },
        {
          "indexed": true,
          "internalType": "address",
          "name": "from",
          "type": "address"
        },
        {
          "indexed": false,
          "internalType": "uint256",
          "name": "amount",
          "type": "uint256"
        }
      ],
      "name": "PropertyBurned",
      "type": "event"
    },
    {
      "anonymous": false,
      "inputs": [
        {
          "indexed": true,
          "internalType": "uint256",
          "name": "tokenId",
          "type": "uint256"
        },
        {
          "indexed": false,
          "internalType": "uint256",
          "name": "maxSupply",
          "type": "uint256"
        },
        {
          "indexed": false,
          "internalType": "string",
          "name": "uri",
          "type": "string"
        }
      ],
      "name": "PropertyCreated",
      "type": "event"
    },
    {
      "anonymous": false,
      "inputs": [
        {
          "indexed": true,
          "internalType": "uint256",
          "name": "tokenId",
          "type": "uint256"
        },
        {
          "indexed": true,
          "internalType": "address",
          "name": "to",
          "type": "address"
        },
        {
          "indexed": false,
          "internalType": "uint256",
          "name": "amount",
          "type": "uint256"
        }
      ],
      "name": "PropertyMinted",
      "type": "event"
    },
    {
      "anonymous": false,
      "inputs": [
        {
          "indexed": true,
          "internalType": "uint256",
          "name": "tokenId",
          "type": "uint256"
        },
        {
          "indexed": false,
          "internalType": "string",
          "name": "newUri",
          "type": "string"
        }
      ],
      "name": "PropertyURIUpdated",
      "type": "event"
    },
    {
      "anonymous": false,
      "inputs": [
        {
          "indexed": true,
          "internalType": "bytes32",
          "name": "role",
          "type": "bytes32"
        },
        {
          "indexed": true,
          "internalType": "bytes32",
          "name": "previousAdminRole",
          "type": "bytes32"
        },
        {
          "indexed": true,
          "internalType": "bytes32",
          "name": "newAdminRole",
          "type": "bytes32"
        }
      ],
      "name": "RoleAdminChanged",
      "type": "event"
    },
    {
      "anonymous": false,
      "inputs": [
        {
          "indexed": true,
          "internalType": "bytes32",
          "name": "role",
          "type": "bytes32"
        },
        {
          "indexed": true,
          "internalType": "address",
          "name": "account",
          "type": "address"
        },
        {
          "indexed": true,
          "internalType": "address",
          "name": "sender",
          "type": "address"
        }
      ],
      "name": "RoleGranted",
      "type": "event"
    },
    {
      "anonymous": false,
      "inputs": [
        {
          "indexed": true,
          "internalType": "bytes32",
          "name": "role",
          "type": "bytes32"
        },
        {
          "indexed": true,
          "internalType": "address",
          "name": "account",
          "type": "address"
        },
        {
          "indexed": true,
          "internalType": "address",
          "name": "sender",
          "type": "address"
        }
      ],
      "name": "RoleRevoked",
      "type": "event"
    },
    {
      "anonymous": false,
      "inputs": [
        {
          "indexed": true,
          "internalType": "address",
          "name": "operator",
          "type": "address"
        },
        {
          "indexed": true,
          "internalType": "address",
          "name": "from",
          "type": "address"
        },
        {
          "indexed": true,
          "internalType": "address",
          "name": "to",
          "type": "address"
        },
        {
          "indexed": false,
          "internalType": "uint256[]",
          "name": "ids",
          "type": "uint256[]"
        },
        {
          "indexed": false,
          "internalType": "uint256[]",
          "name": "values",
          "type": "uint256[]"
        }
      ],
      "name": "TransferBatch",
      "type": "event"
    },
    {
      "anonymous": false,
      "inputs": [
        {
          "indexed": true,
          "internalType": "address",
          "name": "operator",
          "type": "address"
        },
        {
          "indexed": true,
          "internalType": "address",
          "name": "from",
          "type": "address"
        },
        {
          "indexed": true,
          "internalType": "address",
          "name": "to",
          "type": "address"
        },
        {
          "indexed": false,
          "internalType": "uint256",
          "name": "id",
          "type": "uint256"
        },
        {
          "indexed": false,
          "internalType": "uint256",
          "name": "value",
          "type": "uint256"
        }
      ],
      "name": "TransferSingle",
      "type": "event"
    },
    {
      "anonymous": false,
      "inputs": [
        {
          "indexed": false,
          "internalType": "string",
          "name": "value",
          "type": "string"
        },
        {
          "indexed": true,
          "internalType": "uint256",
          "name": "id",
          "type": "uint256"
        }
      ],
      "name": "URI",
      "type": "event"
    },
    {
      "anonymous": false,
      "inputs": [
        {
          "indexed": false,
          "internalType": "address",
          "name": "account",
          "type": "address"
        }
      ],
      "name": "Unpaused",
      "type": "event"
    },
    {
      "inputs": [],
      "name": "ADMIN_ROLE",
      "outputs": [
        {
          "internalType": "bytes32",
          "name": "",
          "type": "bytes32"
        }
      ],
      "stateMutability": "view",
      "type": "function"
    },
    {
      "inputs": [],
      "name": "BURNER_ROLE",
      "outputs": [
        {
          "internalType": "bytes32",
          "name": "",
          "type": "bytes32"
        }
      ],
      "stateMutability": "view",
      "type": "function"
    },
    {
      "inputs": [],
      "name": "COMPLIANCE_ROLE",
      "outputs": [
        {
          "internalType": "bytes32",
          "name": "",
          "type": "bytes32"
        }
      ],
      "stateMutability": "view",
      "type": "function"
    },
    {
      "inputs": [],
      "name": "DEFAULT_ADMIN_ROLE",
      "outputs": [
        {
          "internalType": "bytes32",
          "name": "",
          "type": "bytes32"
        }
      ],
      "stateMutability": "view",
      "type": "function"
    },
    {
      "inputs": [],
      "name": "MINTER_ROLE",
      "outputs": [
        {
          "internalType": "bytes32",
          "name": "",
          "type": "bytes32"
        }
      ],
      "stateMutability": "view",
      "type": "function"
    },
    {
      "inputs": [
        {
          "internalType": "address",
          "name": "account",
          "type": "address"
        },
        {
          "internalType": "uint256",
          "name": "id",
          "type": "uint256"
        }
      ],
      "name": "balanceOf",
      "outputs": [
        {
          "internalType": "uint256",
          "name": "",
          "type": "uint256"
        }
      ],
      "stateMutability": "view",
      "type": "function"
    },
    {
      "inputs": [
        {
          "internalType": "address[]",
          "name": "accounts",
          "type": "address[]"
        },
        {
          "internalType": "uint256[]",
          "name": "ids",
          "type": "uint256[]"
        }
      ],
      "name": "balanceOfBatch",
      "outputs": [
        {
          "internalType": "uint256[]",
          "name": "",
          "type": "uint256[]"
        }
      ],
      "stateMutability": "view",
      "type": "function"
    },
    {
      "inputs": [
        {
          "internalType": "address",
          "name": "from",
          "type": "address"
        },
        {
          "internalType": "uint256",
          "name": "tokenId",
          "type": "uint256"
        },
        {
          "internalType": "uint256",
          "name": "amount",
          "type": "uint256"
        }
      ],
      "name": "burn",
      "outputs": [],
      "stateMutability": "nonpayable",
      "type": "function"
    },
    {
      "inputs": [
        {
          "internalType": "address",
          "name": "from",
          "type": "address"
        },
        {
          "internalType": "uint256[]",
          "name": "tokenIds",
          "type": "uint256[]"
        },
        {
          "internalType": "uint256[]",
          "name": "amounts",
          "type": "uint256[]"
        }
      ],
      "name": "burnBatch",
      "outputs": [],
      "stateMutability": "nonpayable",
      "type": "function"
    },
    {
      "inputs": [],
      "name": "complianceEnabled",
      "outputs": [
        {
          "internalType": "bool",
          "name": "",
          "type": "bool"
        }
      ],
      "stateMutability": "view",
      "type": "function"
    },
    {
      "inputs": [
        {
          "internalType": "uint256",
          "name": "tokenId",
          "type": "uint256"
        },
        {
          "internalType": "uint256",
          "name": "propertyMaxSupply",
          "type": "uint256"
        },
        {
          "internalType": "string",
          "name": "tokenUri",
          "type": "string"
        }
      ],
      "name": "createProperty",
      "outputs": [],
      "stateMutability": "nonpayable",
      "type": "function"
    },
    {
      "inputs": [
        {
          "internalType": "uint256",
          "name": "id",
          "type": "uint256"
        }
      ],
      "name": "exists",
      "outputs": [
        {
          "internalType": "bool",
          "name": "",
          "type": "bool"
        }
      ],
      "stateMutability": "view",
      "type": "function"
    },
    {
      "inputs": [
        {
          "internalType": "bytes32",
          "name": "role",
          "type": "bytes32"
        }
      ],
      "name": "getRoleAdmin",
      "outputs": [
        {
          "internalType": "bytes32",
          "name": "",
          "type": "bytes32"
        }
      ],
      "stateMutability": "view",
      "type": "function"
    },
    {
      "inputs": [
        {
          "internalType": "bytes32",
          "name": "role",
          "type": "bytes32"
        },
        {
          "internalType": "address",
          "name": "account",
          "type": "address"
        }
      ],
      "name": "grantRole",
      "outputs": [],
      "stateMutability": "nonpayable",
      "type": "function"
    },
    {
      "inputs": [
        {
          "internalType": "bytes32",
          "name": "role",
          "type": "bytes32"
        },
        {
          "internalType": "address",
          "name": "account",
          "type": "address"
        }
      ],
      "name": "hasRole",
      "outputs": [
        {
          "internalType": "bool",
          "name": "",
          "type": "bool"
        }
      ],
      "stateMutability": "view",
      "type": "function"
    },
    {
      "inputs": [
        {
          "internalType": "address",
          "name": "account",
          "type": "address"
        },
        {
          "internalType": "address",
          "name": "operator",
          "type": "address"
        }
      ],
      "name": "isApprovedForAll",
      "outputs": [
        {
          "internalType": "bool",
          "name": "",
          "type": "bool"
        }
      ],
      "stateMutability": "view",
      "type": "function"
    },
    {
      "inputs": [
        {
          "internalType": "address",
          "name": "account",
          "type": "address"
        }
      ],
      "name": "isBlocklisted",
      "outputs": [
        {
          "internalType": "bool",
          "name": "",
          "type": "bool"
        }
      ],
      "stateMutability": "view",
      "type": "function"
    },
    {
      "inputs": [
        {
          "internalType": "uint256",
          "name": "tokenId",
          "type": "uint256"
        }
      ],
      "name": "maxSupply",
      "outputs": [
        {
          "internalType": "uint256",
          "name": "",
          "type": "uint256"
        }
      ],
      "stateMutability": "view",
      "type": "function"
    },
    {
      "inputs": [
        {
          "internalType": "address",
          "name": "to",
          "type": "address"
        },
        {
          "internalType": "uint256",
          "name": "tokenId",
          "type": "uint256"
        },
        {
          "internalType": "uint256",
          "name": "amount",
          "type": "uint256"
        },
        {
          "internalType": "bytes",
          "name": "data",
          "type": "bytes"
        }
      ],
      "name": "mint",
      "outputs": [],
      "stateMutability": "nonpayable",
      "type": "function"
    },
    {
      "inputs": [
        {
          "internalType": "address",
          "name": "to",
          "type": "address"
        },
        {
          "internalType": "uint256[]",
          "name": "tokenIds",
          "type": "uint256[]"
        },
        {
          "internalType": "uint256[]",
          "name": "amounts",
          "type": "uint256[]"
        },
        {
          "internalType": "bytes",
          "name": "data",
          "type": "bytes"
        }
      ],
      "name": "mintBatch",
      "outputs": [],
      "stateMutability": "nonpayable",
      "type": "function"
    },
    {
      "inputs": [],
      "name": "name",
      "outputs": [
        {
          "internalType": "string",
          "name": "",
          "type": "string"
        }
      ],
      "stateMutability": "view",
      "type": "function"
    },
    {
      "inputs": [],
      "name": "pause",
      "outputs": [],
      "stateMutability": "nonpayable",
      "type": "function"
    },
    {
      "inputs": [],
      "name": "paused",
      "outputs": [
        {
          "internalType": "bool",
          "name": "",
          "type": "bool"
        }
      ],
      "stateMutability": "view",
      "type": "function"
    },
    {
      "inputs": [
        {
          "internalType": "uint256",
          "name": "tokenId",
          "type": "uint256"
        }
      ],
      "name": "propertyExists",
      "outputs": [
        {
          "internalType": "bool",
          "name": "",
          "type": "bool"
        }
      ],
      "stateMutability": "view",
      "type": "function"
    },
    {
      "inputs": [
        {
          "internalType": "uint256",
          "name": "tokenId",
          "type": "uint256"
        }
      ],
      "name": "remainingSupply",
      "outputs": [
        {
          "internalType": "uint256",
          "name": "",
          "type": "uint256"
        }
      ],
      "stateMutability": "view",
      "type": "function"
    },
    {
      "inputs": [
        {
          "internalType": "bytes32",
          "name": "role",
          "type": "bytes32"
        },
        {
          "internalType": "address",
          "name": "callerConfirmation",
          "type": "address"
        }
      ],
      "name": "renounceRole",
      "outputs": [],
      "stateMutability": "nonpayable",
      "type": "function"
    },
    {
      "inputs": [
        {
          "internalType": "bytes32",
          "name": "role",
          "type": "bytes32"
        },
        {
          "internalType": "address",
          "name": "account",
          "type": "address"
        }
      ],
      "name": "revokeRole",
      "outputs": [],
      "stateMutability": "nonpayable",
      "type": "function"
    },
    {
      "inputs": [
        {
          "internalType": "address",
          "name": "from",
          "type": "address"
        },
        {
          "internalType": "address",
          "name": "to",
          "type": "address"
        },
        {
          "internalType": "uint256[]",
          "name": "ids",
          "type": "uint256[]"
        },
        {
          "internalType": "uint256[]",
          "name": "values",
          "type": "uint256[]"
        },
        {
          "internalType": "bytes",
          "name": "data",
          "type": "bytes"
        }
      ],
      "name": "safeBatchTransferFrom",
      "outputs": [],
      "stateMutability": "nonpayable",
      "type": "function"
    },
    {
      "inputs": [
        {
          "internalType": "address",
          "name": "from",
          "type": "address"
        },
        {
          "internalType": "address",
          "name": "to",
          "type": "address"
        },
        {
          "internalType": "uint256",
          "name": "id",
          "type": "uint256"
        },
        {
          "internalType": "uint256",
          "name": "value",
          "type": "uint256"
        },
        {
          "internalType": "bytes",
          "name": "data",
          "type": "bytes"
        }
      ],
      "name": "safeTransferFrom",
      "outputs": [],
      "stateMutability": "nonpayable",
      "type": "function"
    },
    {
      "inputs": [
        {
          "internalType": "address",
          "name": "operator",
          "type": "address"
        },
        {
          "internalType": "bool",
          "name": "approved",
          "type": "bool"
        }
      ],
      "name": "setApprovalForAll",
      "outputs": [],
      "stateMutability": "nonpayable",
      "type": "function"
    },
    {
      "inputs": [
        {
          "internalType": "address",
          "name": "account",
          "type": "address"
        },
        {
          "internalType": "bool",
          "name": "blocked",
          "type": "bool"
        }
      ],
      "name": "setBlocklist",
      "outputs": [],
      "stateMutability": "nonpayable",
      "type": "function"
    },
    {
      "inputs": [
        {
          "internalType": "bool",
          "name": "enabled",
          "type": "bool"
        }
      ],
      "name": "setComplianceEnabled",
      "outputs": [],
      "stateMutability": "nonpayable",
      "type": "function"
    },
    {
      "inputs": [
        {
          "internalType": "uint256",
          "name": "tokenId",
          "type": "uint256"
        },
        {
          "internalType": "uint256",
          "name": "newMaxSupply",
          "type": "uint256"
        }
      ],
      "name": "setMaxSupply",
      "outputs": [],
      "stateMutability": "nonpayable",
      "type": "function"
    },
    {
      "inputs": [
        {
          "internalType": "uint256",
          "name": "tokenId",
          "type": "uint256"
        },
        {
          "internalType": "string",
          "name": "newUri",
          "type": "string"
        }
      ],
      "name": "setTokenURI",
      "outputs": [],
      "stateMutability": "nonpayable",
      "type": "function"
    },
    {
      "inputs": [
        {
          "internalType": "bytes4",
          "name": "interfaceId",
          "type": "bytes4"
        }
      ],
      "name": "supportsInterface",
      "outputs": [
        {
          "internalType": "bool",
          "name": "",
          "type": "bool"
        }
      ],
      "stateMutability": "view",
      "type": "function"
    },
    {
      "inputs": [],
      "name": "symbol",
      "outputs": [
        {
          "internalType": "string",
          "name": "",
          "type": "string"
        }
      ],
      "stateMutability": "view",
      "type": "function"
    },
    {
      "inputs": [],
      "name": "totalSupply",
      "outputs": [
        {
          "internalType": "uint256",
          "name": "",
          "type": "uint256"
        }
      ],
      "stateMutability": "view",
      "type": "function"
    },
    {
      "inputs": [
        {
          "internalType": "uint256",
          "name": "id",
          "type": "uint256"
        }
      ],
      "name": "totalSupply",
      "outputs": [
        {
          "internalType": "uint256",
          "name": "",
          "type": "uint256"
        }
      ],
      "stateMutability": "view",
      "type": "function"
    },
    {
      "inputs": [],
      "name": "unpause",
      "outputs": [],
      "stateMutability": "nonpayable",
      "type": "function"
    },
    {
      "inputs": [
        {
          "internalType": "uint256",
          "name": "tokenId",
          "type": "uint256"
        }
      ],
      "name": "uri",
      "outputs": [
        {
          "internalType": "string",
          "name": "",
          "type": "string"
        }
      ],
      "stateMutability": "view",
      "type": "function"
    }
  ],
  "bytecode": "0x60c0604052601560809081527f506172636f2050726f706572747920546f6b656e73000000000000000000000060a0526008906200003e908262000320565b50604080518082019091526005815264504152434f60d81b60208201526009906200006a908262000320565b50600e805460ff191690553480156200008257600080fd5b506040516200316d3803806200316d833981016040819052620000a591620003ec565b604080516020810190915260008152620000bf81620001b6565b5060016007556001600160a01b038116620000ed5760405163d92e233d60e01b815260040160405180910390fd5b620000fa600082620001c8565b50620001277fa49807205ce4d355092ef5a8a18f56e8913cf4a201fbe287825b095693c2177582620001c8565b50620001547f9f2df0fed2c77648de5860a4cc508cd0818c85b8b8a1ab4ceeef8d981c8956a682620001c8565b50620001817f3c11d16cbaffd01df69ce1c404f6340ee057498f5f00246190ea54220576a84882620001c8565b50620001ae7f442a94f1a1fac79af32856af2a64f63648cfa2ef3b98610a5bb7cbec4cee698582620001c8565b50506200041e565b6002620001c4828262000320565b5050565b60008281526005602090815260408083206001600160a01b038516845290915281205460ff16620002715760008381526005602090815260408083206001600160a01b03861684529091529020805460ff19166001179055620002283390565b6001600160a01b0316826001600160a01b0316847f2f8788117e7eff1d82e926ec794901d17c78024a50270940304540a733656f0d60405160405180910390a450600162000275565b5060005b92915050565b634e487b7160e01b600052604160045260246000fd5b600181811c90821680620002a657607f821691505b602082108103620002c757634e487b7160e01b600052602260045260246000fd5b50919050565b601f8211156200031b57600081815260208120601f850160051c81016020861015620002f65750805b601f850160051c820191505b81811015620003175782815560010162000302565b5050505b505050565b81516001600160401b038111156200033c576200033c6200027b565b62000354816200034d845462000291565b84620002cd565b602080601f8311600181146200038c5760008415620003735750858301515b600019600386901b1c1916600185901b17855562000317565b600085815260208120601f198616915b82811015620003bd578886015182559484019460019091019084016200039c565b5085821015620003dc5787850151600019600388901b60f8161c191681555b5050505050600190811b01905550565b600060208284031215620003ff57600080fd5b81516001600160a01b03811681146200041757600080fd5b9392505050565b612d3f806200042e6000396000f3fe608060405234801561001057600080fd5b50600436106102475760003560e01c80635c975abb1161013b578063a217fddf116100b8578063d83c82701161007c578063d83c82701461057a578063e04e77f714610587578063e985e9c51461059a578063f242432a146105ad578063f5298aca146105c057600080fd5b8063a217fddf14610505578063a22cb4651461050d578063bd85b03914610520578063d539139314610540578063d547741f1461056757600080fd5b8063869f7594116100ff578063869f75941461048b5780638e204c43146104ab57806391694308146104d757806391d14854146104ea57806395d89b41146104fd57600080fd5b80635c975abb1461043d5780636b20c45414610448578063731133e91461045b57806375b238fc1461046e5780638456cb591461048357600080fd5b8063282c51f3116101c95780633f4ba83a1161018d5780633f4ba83a146103bd57806347fda41a146103c55780634a164732146103d85780634e1273f4146103fb5780634f558e791461041b57600080fd5b8063282c51f31461034a5780632eb2c2d6146103715780632f2ff15d1461038457806336568abe1461039757806337da577c146103aa57600080fd5b8063162094c411610210578063162094c4146102e45780631644a7b1146102f957806318160ddd1461030c5780631f7fdffa14610314578063248a9ca31461032757600080fd5b8062fdd58e1461024c57806301ffc9a714610272578063062d3bd71461029557806306fdde03146102bc5780630e89341c146102d1575b600080fd5b61025f61025a3660046121fb565b6105d3565b6040519081526020015b60405180910390f35b61028561028036600461223b565b6105fb565b6040519015158152602001610269565b61025f7f442a94f1a1fac79af32856af2a64f63648cfa2ef3b98610a5bb7cbec4cee698581565b6102c4610606565b60405161026991906122a5565b6102c46102df3660046122b8565b610694565b6102f76102f2366004612319565b61076c565b005b6102f7610307366004612364565b61084a565b60045461025f565b6102f76103223660046123fa565b610932565b61025f6103353660046122b8565b60009081526005602052604090206001015490565b61025f7f3c11d16cbaffd01df69ce1c404f6340ee057498f5f00246190ea54220576a84881565b6102f761037f3660046125e7565b610c96565b6102f7610392366004612690565b610cfd565b6102f76103a5366004612690565b610d28565b6102f76103b83660046126bc565b610d60565b6102f7610e2b565b61025f6103d33660046122b8565b610e4e565b6102856103e63660046122b8565b6000908152600b602052604090205460ff1690565b61040e6104093660046126de565b610e94565b60405161026991906127d8565b6102856104293660046122b8565b600090815260036020526040902054151590565b60065460ff16610285565b6102f76104563660046127eb565b610f68565b6102f761046936600461286b565b611173565b61025f600080516020612cea83398151915281565b6102f76112f1565b61025f6104993660046122b8565b6000908152600c602052604090205490565b6102856104b93660046128c1565b6001600160a01b03166000908152600d602052604090205460ff1690565b6102f76104e53660046128ec565b611311565b6102856104f8366004612690565b611393565b6102c46113be565b61025f600081565b6102f761051b3660046128ec565b6113cb565b61025f61052e3660046122b8565b60009081526003602052604090205490565b61025f7f9f2df0fed2c77648de5860a4cc508cd0818c85b8b8a1ab4ceeef8d981c8956a681565b6102f7610575366004612690565b6113da565b600e546102859060ff1681565b6102f7610595366004612916565b6113ff565b6102856105a8366004612931565b611471565b6102f76105bb36600461295b565b61149f565b6102f76105ce3660046129bf565b6114fe565b6000818152602081815260408083206001600160a01b03861684529091529020545b92915050565b60006105f58261160b565b60088054610613906129f2565b80601f016020809104026020016040519081016040528092919081815260200182805461063f906129f2565b801561068c5780601f106106615761010080835404028352916020019161068c565b820191906000526020600020905b81548152906001019060200180831161066f57829003601f168201915b505050505081565b6000818152600b602052604090205460609060ff166106ce5760405163245a964f60e21b8152600481018390526024015b60405180910390fd5b6000828152600a6020526040902080546106e7906129f2565b80601f0160208091040260200160405190810160405280929190818152602001828054610713906129f2565b80156107605780601f1061073557610100808354040283529160200191610760565b820191906000526020600020905b81548152906001019060200180831161074357829003601f168201915b50505050509050919050565b600080516020612cea83398151915261078481611630565b6000848152600b602052604090205460ff166107b65760405163245a964f60e21b8152600481018590526024016106c5565b6000848152600a602052604090206107cf838583612a72565b50837f199ca76f78f41458c3f6aa5e27e2b7d3f5f132049b51d5e6f334147a2408a8708484604051610802929190612b5a565b60405180910390a2837f6bb7ff708619ba0610cba295a58592e0451dee2622938c8755667688daf3529b848460405161083c929190612b5a565b60405180910390a250505050565b600080516020612cea83398151915261086281611630565b6000858152600b602052604090205460ff16156108955760405163ee42660160e01b8152600481018690526024016106c5565b836000036108b65760405163066f305360e21b815260040160405180910390fd5b6000858152600b60209081526040808320805460ff19166001179055600c8252808320879055600a90915290206108ee838583612a72565b50847f9fe3b005a3a06a6e2fb8e4b00cdde166e24f9fac4872c053eb72a4e2e5e1545785858560405161092393929190612b76565b60405180910390a25050505050565b7f9f2df0fed2c77648de5860a4cc508cd0818c85b8b8a1ab4ceeef8d981c8956a661095c81611630565b61096461163a565b61096c611660565b6001600160a01b0388166109935760405163d92e233d60e01b815260040160405180910390fd5b60005b86811015610b4d57600b60008989848181106109b4576109b4612b99565b602090810292909201358352508101919091526040016000205460ff16610a0a578787828181106109e7576109e7612b99565b9050602002013560405163245a964f60e21b81526004016106c591815260200190565b858582818110610a1c57610a1c612b99565b90506020020135600003610a4357604051631f2a200560e01b815260040160405180910390fd5b6000610a73898984818110610a5a57610a5a612b99565b9050602002013560009081526003602052604090205490565b90506000600c60008b8b86818110610a8d57610a8d612b99565b90506020020135815260200190815260200160002054905080888885818110610ab857610ab8612b99565b9050602002013583610aca9190612bc5565b1115610b3857898984818110610ae257610ae2612b99565b90506020020135888885818110610afb57610afb612b99565b905060200201358383610b0e9190612bd8565b604051631d44f5d560e31b81526004810193909352602483019190915260448201526064016106c5565b50508080610b4590612beb565b915050610996565b50610bf08888888080602002602001604051908101604052809392919081815260200183836020028082843760009201919091525050604080516020808c0282810182019093528b82529093508b92508a91829185019084908082843760009201919091525050604080516020601f8b01819004810282018101909252898152925089915088908190840183828082843760009201919091525061168a92505050565b60005b86811015610c8157886001600160a01b0316888883818110610c1757610c17612b99565b905060200201357f8e2073f25511f47a783a6a4b5407d046a7aeb09d0215f5126465a348c00e3a54888885818110610c5157610c51612b99565b90506020020135604051610c6791815260200190565b60405180910390a380610c7981612beb565b915050610bf3565b50610c8c6001600755565b5050505050505050565b336001600160a01b0386168114801590610cb75750610cb58682611471565b155b15610ce85760405163711bec9160e11b81526001600160a01b038083166004830152871660248201526044016106c5565b610cf586868686866116c2565b505050505050565b600082815260056020526040902060010154610d1881611630565b610d228383611729565b50505050565b6001600160a01b0381163314610d515760405163334bd91960e11b815260040160405180910390fd5b610d5b82826117bd565b505050565b600080516020612cea833981519152610d7881611630565b6000838152600b602052604090205460ff16610daa5760405163245a964f60e21b8152600481018490526024016106c5565b600083815260036020526040902054821015610dd95760405163066f305360e21b815260040160405180910390fd5b6000838152600c6020526040908190208390555183907f44ecfc706d63e347851cfd40acfa6cf2e3a41faa3e8b460210c03938e84a91ad90610e1e9085815260200190565b60405180910390a2505050565b600080516020612cea833981519152610e4381611630565b610e4b61182a565b50565b6000818152600b602052604081205460ff16610e6c57506000919050565b6000828152600360205260409020546000838152600c60205260409020546105f59190612bd8565b60608151835114610ec55781518351604051635b05999160e01b8152600481019290925260248201526044016106c5565b600083516001600160401b03811115610ee057610ee06124a4565b604051908082528060200260200182016040528015610f09578160200160208202803683370190505b50905060005b8451811015610f6057602080820286010151610f33906020808402870101516105d3565b828281518110610f4557610f45612b99565b6020908102919091010152610f5981612beb565b9050610f0f565b509392505050565b7f3c11d16cbaffd01df69ce1c404f6340ee057498f5f00246190ea54220576a848610f9281611630565b610f9a61163a565b610fa2611660565b6001600160a01b038616610fc95760405163d92e233d60e01b815260040160405180910390fd5b60005b8481101561106857600b6000878784818110610fea57610fea612b99565b602090810292909201358352508101919091526040016000205460ff1661101d578585828181106109e7576109e7612b99565b83838281811061102f5761102f612b99565b9050602002013560000361105657604051631f2a200560e01b815260040160405180910390fd5b8061106081612beb565b915050610fcc565b506110d78686868080602002602001604051908101604052809392919081815260200183836020028082843760009201919091525050604080516020808a0282810182019093528982529093508992508891829185019084908082843760009201919091525061187c92505050565b60005b8481101561116857866001600160a01b03168686838181106110fe576110fe612b99565b905060200201357f068cf027125e6ea2ba7202d76dc435388d7cca560856ae2a5df9a5d3f97b01bc86868581811061113857611138612b99565b9050602002013560405161114e91815260200190565b60405180910390a38061116081612beb565b9150506110da565b50610cf56001600755565b7f9f2df0fed2c77648de5860a4cc508cd0818c85b8b8a1ab4ceeef8d981c8956a661119d81611630565b6111a561163a565b6111ad611660565b6001600160a01b0386166111d45760405163d92e233d60e01b815260040160405180910390fd5b836000036111f557604051631f2a200560e01b815260040160405180910390fd5b6000858152600b602052604090205460ff166112275760405163245a964f60e21b8152600481018690526024016106c5565b600085815260036020908152604080832054600c909252909120548061124d8784612bc5565b111561125f578686610b0e8484612bd8565b6112a188888888888080601f0160208091040260200160405190810160405280939291908181526020018383808284376000920191909152506118c292505050565b876001600160a01b0316877f8e2073f25511f47a783a6a4b5407d046a7aeb09d0215f5126465a348c00e3a54886040516112dd91815260200190565b60405180910390a35050610cf56001600755565b600080516020612cea83398151915261130981611630565b610e4b61191f565b7f442a94f1a1fac79af32856af2a64f63648cfa2ef3b98610a5bb7cbec4cee698561133b81611630565b6001600160a01b0383166000818152600d6020908152604091829020805460ff191686151590811790915591519182527f7d1d98659807e69bce2f04d51fdf72591d37fddbee053634ac45d34ed57a86d99101610e1e565b60009182526005602090815260408084206001600160a01b0393909316845291905290205460ff1690565b60098054610613906129f2565b6113d633838361195c565b5050565b6000828152600560205260409020600101546113f581611630565b610d2283836117bd565b7f442a94f1a1fac79af32856af2a64f63648cfa2ef3b98610a5bb7cbec4cee698561142981611630565b600e805460ff19168315159081179091556040519081527f86dbbd7363d461824ae381ba7a2b6467bec699ca8b2089833e2fb7341ead10ba9060200160405180910390a15050565b6001600160a01b03918216600090815260016020908152604080832093909416825291909152205460ff1690565b336001600160a01b03861681148015906114c057506114be8682611471565b155b156114f15760405163711bec9160e11b81526001600160a01b038083166004830152871660248201526044016106c5565b610cf586868686866119f2565b7f3c11d16cbaffd01df69ce1c404f6340ee057498f5f00246190ea54220576a84861152881611630565b61153061163a565b611538611660565b6001600160a01b03841661155f5760405163d92e233d60e01b815260040160405180910390fd5b8160000361158057604051631f2a200560e01b815260040160405180910390fd5b6000838152600b602052604090205460ff166115b25760405163245a964f60e21b8152600481018490526024016106c5565b6115bd848484611a80565b836001600160a01b0316837f068cf027125e6ea2ba7202d76dc435388d7cca560856ae2a5df9a5d3f97b01bc846040516115f991815260200190565b60405180910390a3610d226001600755565b60006001600160e01b03198216637965db0b60e01b14806105f557506105f582611ae8565b610e4b8133611b38565b60065460ff161561165e5760405163d93c066560e01b815260040160405180910390fd5b565b60026007540361168357604051633ee5aeb560e01b815260040160405180910390fd5b6002600755565b6001600160a01b0384166116b457604051632bfa23e760e11b8152600060048201526024016106c5565b610d22600085858585611b71565b6001600160a01b0384166116ec57604051632bfa23e760e11b8152600060048201526024016106c5565b6001600160a01b03851661171557604051626a0d4560e21b8152600060048201526024016106c5565b6117228585858585611b71565b5050505050565b60006117358383611393565b6117b55760008381526005602090815260408083206001600160a01b03861684529091529020805460ff1916600117905561176d3390565b6001600160a01b0316826001600160a01b0316847f2f8788117e7eff1d82e926ec794901d17c78024a50270940304540a733656f0d60405160405180910390a45060016105f5565b5060006105f5565b60006117c98383611393565b156117b55760008381526005602090815260408083206001600160a01b0386168085529252808320805460ff1916905551339286917ff6391f5c32d9c69d2a47ea670b442974b53935d1edc7fd64eb21e047a839171b9190a45060016105f5565b611832611bc4565b6006805460ff191690557f5db9ee0a495bf2e6ff9c91a7834c1ba4fdd244a5e8aa4e537bd38aeae4b073aa335b6040516001600160a01b03909116815260200160405180910390a1565b6001600160a01b0383166118a557604051626a0d4560e21b8152600060048201526024016106c5565b610d5b836000848460405180602001604052806000815250611b71565b6001600160a01b0384166118ec57604051632bfa23e760e11b8152600060048201526024016106c5565b60408051600180825260208201869052818301908152606082018590526080820190925290610cf5600087848487611b71565b61192761163a565b6006805460ff191660011790557f62e78cea01bee320cd4e420270b5ea74000d11b0c9f74754ebdbfc544b05a25861185f3390565b6001600160a01b0382166119855760405162ced3e160e81b8152600060048201526024016106c5565b6001600160a01b03838116600081815260016020908152604080832094871680845294825291829020805460ff191686151590811790915591519182527f17307eab39ab6107e8899845ad3d59bd9653f200f220920489ca2b5937696c31910160405180910390a3505050565b6001600160a01b038416611a1c57604051632bfa23e760e11b8152600060048201526024016106c5565b6001600160a01b038516611a4557604051626a0d4560e21b8152600060048201526024016106c5565b60408051600180825260208201869052818301908152606082018590526080820190925290611a778787848487611b71565b50505050505050565b6001600160a01b038316611aa957604051626a0d4560e21b8152600060048201526024016106c5565b604080516001808252602082018590528183019081526060820184905260a0820190925260006080820181815291929161172291879185908590611b71565b60006001600160e01b03198216636cdb3d1360e11b1480611b1957506001600160e01b031982166303a24d0760e21b145b806105f557506301ffc9a760e01b6001600160e01b03198316146105f5565b611b428282611393565b6113d65760405163e2517d3f60e01b81526001600160a01b0382166004820152602481018390526044016106c5565b611b7d85858585611be7565b6001600160a01b038416156117225782513390600103611bb65760208481015190840151611baf838989858589611cb8565b5050610cf5565b610cf5818787878787611ddc565b60065460ff1661165e57604051638dfc202b60e01b815260040160405180910390fd5b611bef61163a565b600e5460ff1615611cac576001600160a01b03841615801590611c2a57506001600160a01b0384166000908152600d602052604090205460ff165b15611c535760405163ec85c5b360e01b81526001600160a01b03851660048201526024016106c5565b6001600160a01b03831615801590611c8357506001600160a01b0383166000908152600d602052604090205460ff165b15611cac5760405163ec85c5b360e01b81526001600160a01b03841660048201526024016106c5565b610d2284848484611ec5565b6001600160a01b0384163b15610cf55760405163f23a6e6160e01b81526001600160a01b0385169063f23a6e6190611cfc9089908990889088908890600401612c04565b6020604051808303816000875af1925050508015611d37575060408051601f3d908101601f19168201909252611d3491810190612c49565b60015b611da0573d808015611d65576040519150601f19603f3d011682016040523d82523d6000602084013e611d6a565b606091505b508051600003611d9857604051632bfa23e760e11b81526001600160a01b03861660048201526024016106c5565b805160208201fd5b6001600160e01b0319811663f23a6e6160e01b14611a7757604051632bfa23e760e11b81526001600160a01b03861660048201526024016106c5565b6001600160a01b0384163b15610cf55760405163bc197c8160e01b81526001600160a01b0385169063bc197c8190611e209089908990889088908890600401612c66565b6020604051808303816000875af1925050508015611e5b575060408051601f3d908101601f19168201909252611e5891810190612c49565b60015b611e89573d808015611d65576040519150601f19603f3d011682016040523d82523d6000602084013e611d6a565b6001600160e01b0319811663bc197c8160e01b14611a7757604051632bfa23e760e11b81526001600160a01b03861660048201526024016106c5565b611ed184848484611fc2565b6001600160a01b038416611f5a576000805b8351811015611f405760208181028481018201519086018201516000908152600390925260408220805491928392611f1c908490612bc5565b90915550611f2c90508184612bc5565b92505080611f3990612beb565b9050611ee3565b508060046000828254611f539190612bc5565b9091555050505b6001600160a01b038316610d22576000805b8351811015611fb1576020818102848101820151908601820151600090815260039092526040909120805482900390559190910190611faa81612beb565b9050611f6c565b506004805491909103905550505050565b8051825114611ff15781518151604051635b05999160e01b8152600481019290925260248201526044016106c5565b3360005b8351811015612100576020818102858101820151908501909101516001600160a01b038816156120a8576000828152602081815260408083206001600160a01b038c16845290915290205481811015612081576040516303dee4c560e01b81526001600160a01b038a1660048201526024810182905260448101839052606481018490526084016106c5565b6000838152602081815260408083206001600160a01b038d16845290915290209082900390555b6001600160a01b038716156120ed576000828152602081815260408083206001600160a01b038b168452909152812080548392906120e7908490612bc5565b90915550505b5050806120f990612beb565b9050611ff5565b5082516001036121815760208301516000906020840151909150856001600160a01b0316876001600160a01b0316846001600160a01b03167fc3d58168c5ae7397731d063d5bbf3d657854427343f4c083240f7aacaa2d0f628585604051612172929190918252602082015260400190565b60405180910390a45050611722565b836001600160a01b0316856001600160a01b0316826001600160a01b03167f4a39dc06d4c0dbc64b70af90fd698a233a518aa5d07e595d983b8c0526c8f7fb86866040516121d0929190612cc4565b60405180910390a45050505050565b80356001600160a01b03811681146121f657600080fd5b919050565b6000806040838503121561220e57600080fd5b612217836121df565b946020939093013593505050565b6001600160e01b031981168114610e4b57600080fd5b60006020828403121561224d57600080fd5b813561225881612225565b9392505050565b6000815180845260005b8181101561228557602081850181015186830182015201612269565b506000602082860101526020601f19601f83011685010191505092915050565b602081526000612258602083018461225f565b6000602082840312156122ca57600080fd5b5035919050565b60008083601f8401126122e357600080fd5b5081356001600160401b038111156122fa57600080fd5b60208301915083602082850101111561231257600080fd5b9250929050565b60008060006040848603121561232e57600080fd5b8335925060208401356001600160401b0381111561234b57600080fd5b612357868287016122d1565b9497909650939450505050565b6000806000806060858703121561237a57600080fd5b843593506020850135925060408501356001600160401b0381111561239e57600080fd5b6123aa878288016122d1565b95989497509550505050565b60008083601f8401126123c857600080fd5b5081356001600160401b038111156123df57600080fd5b6020830191508360208260051b850101111561231257600080fd5b60008060008060008060006080888a03121561241557600080fd5b61241e886121df565b965060208801356001600160401b038082111561243a57600080fd5b6124468b838c016123b6565b909850965060408a013591508082111561245f57600080fd5b61246b8b838c016123b6565b909650945060608a013591508082111561248457600080fd5b506124918a828b016122d1565b989b979a50959850939692959293505050565b634e487b7160e01b600052604160045260246000fd5b604051601f8201601f191681016001600160401b03811182821017156124e2576124e26124a4565b604052919050565b60006001600160401b03821115612503576125036124a4565b5060051b60200190565b600082601f83011261251e57600080fd5b8135602061253361252e836124ea565b6124ba565b82815260059290921b8401810191818101908684111561255257600080fd5b8286015b8481101561256d5780358352918301918301612556565b509695505050505050565b600082601f83011261258957600080fd5b81356001600160401b038111156125a2576125a26124a4565b6125b5601f8201601f19166020016124ba565b8181528460208386010111156125ca57600080fd5b816020850160208301376000918101602001919091529392505050565b600080600080600060a086880312156125ff57600080fd5b612608866121df565b9450612616602087016121df565b935060408601356001600160401b038082111561263257600080fd5b61263e89838a0161250d565b9450606088013591508082111561265457600080fd5b61266089838a0161250d565b9350608088013591508082111561267657600080fd5b5061268388828901612578565b9150509295509295909350565b600080604083850312156126a357600080fd5b823591506126b3602084016121df565b90509250929050565b600080604083850312156126cf57600080fd5b50508035926020909101359150565b600080604083850312156126f157600080fd5b82356001600160401b038082111561270857600080fd5b818501915085601f83011261271c57600080fd5b8135602061272c61252e836124ea565b82815260059290921b8401810191818101908984111561274b57600080fd5b948201945b8386101561277057612761866121df565b82529482019490820190612750565b9650508601359250508082111561278657600080fd5b506127938582860161250d565b9150509250929050565b600081518084526020808501945080840160005b838110156127cd578151875295820195908201906001016127b1565b509495945050505050565b602081526000612258602083018461279d565b60008060008060006060868803121561280357600080fd5b61280c866121df565b945060208601356001600160401b038082111561282857600080fd5b61283489838a016123b6565b9096509450604088013591508082111561284d57600080fd5b5061285a888289016123b6565b969995985093965092949392505050565b60008060008060006080868803121561288357600080fd5b61288c866121df565b9450602086013593506040860135925060608601356001600160401b038111156128b557600080fd5b61285a888289016122d1565b6000602082840312156128d357600080fd5b612258826121df565b803580151581146121f657600080fd5b600080604083850312156128ff57600080fd5b612908836121df565b91506126b3602084016128dc565b60006020828403121561292857600080fd5b612258826128dc565b6000806040838503121561294457600080fd5b61294d836121df565b91506126b3602084016121df565b600080600080600060a0868803121561297357600080fd5b61297c866121df565b945061298a602087016121df565b9350604086013592506060860135915060808601356001600160401b038111156129b357600080fd5b61268388828901612578565b6000806000606084860312156129d457600080fd5b6129dd846121df565b95602085013595506040909401359392505050565b600181811c90821680612a0657607f821691505b602082108103612a2657634e487b7160e01b600052602260045260246000fd5b50919050565b601f821115610d5b57600081815260208120601f850160051c81016020861015612a535750805b601f850160051c820191505b81811015610cf557828155600101612a5f565b6001600160401b03831115612a8957612a896124a4565b612a9d83612a9783546129f2565b83612a2c565b6000601f841160018114612ad15760008515612ab95750838201355b600019600387901b1c1916600186901b178355611722565b600083815260209020601f19861690835b82811015612b025786850135825560209485019460019092019101612ae2565b5086821015612b1f5760001960f88860031b161c19848701351681555b505060018560011b0183555050505050565b81835281816020850137506000828201602090810191909152601f909101601f19169091010190565b602081526000612b6e602083018486612b31565b949350505050565b838152604060208201526000612b90604083018486612b31565b95945050505050565b634e487b7160e01b600052603260045260246000fd5b634e487b7160e01b600052601160045260246000fd5b808201808211156105f5576105f5612baf565b818103818111156105f5576105f5612baf565b600060018201612bfd57612bfd612baf565b5060010190565b6001600160a01b03868116825285166020820152604081018490526060810183905260a060808201819052600090612c3e9083018461225f565b979650505050505050565b600060208284031215612c5b57600080fd5b815161225881612225565b6001600160a01b0386811682528516602082015260a060408201819052600090612c929083018661279d565b8281036060840152612ca4818661279d565b90508281036080840152612cb8818561225f565b98975050505050505050565b604081526000612cd7604083018561279d565b8281036020840152612b90818561279d56fea49807205ce4d355092ef5a8a18f56e8913cf4a201fbe287825b095693c21775a264697066735822122021a5d380a7b0c25e12c36fa7dca70c9aad4716c6c3c3f328e9eb04147430874464736f6c63430008140033",
  "linkReferences": {},
  "deployedLinkReferences": {}
}